:100000000C9462000C94C0050C9499050C948A0021
:100010000C948A000C948A000C948A000C948A0038
:100020000C948A000C948A000C948A000C948A0028
:100030000C948A000C948A000C948A000C948A0018
:100040000C944F050C948A000C948A000C948A003E
:100050000C948A000C948A000C948A000C948A00F8
:100060000C94E7050C948A0000000000240027008F
:100070002A0000000000250028002B0000000008D6
:10008000000201000003040700000000000000005F
:1000900000000000230026002900040404040404D6
:1000A0000404020202020202030303030303010227
:1000B00004081020408001020408102001020408F6
:1000C00010204B0711241FBECFEFD8E0DEBFCDBFFD
:1000D00011E0A0E0B1E0E8E0FEE102C005900D9281
:1000E000A43DB107D9F722E0A4EDB1E001C01D9213
:1000F000AF3EB207E1F710E0C2E6D0E004C02197BE
:10010000FE010E94240CC136D107C9F70E946B077B
:100110000C94020F0C940000833081F028F481309D
:1001200099F08230A9F008958730A9F08830C9F09D
:100130008430B1F4809180008F7D03C08091800075
:100140008F7780938000089584B58F7784BD08955C
:1001500084B58F7DFBCF8091B0008F778093B00006
:1001600008958091B0008F7DF9CFCF93DF93282F32
:1001700030E0F901E458FF4F8491F901E255FF4F57
:10018000D491F901E656FF4FC491CC23A1F081111F
:100190000E948C00EC2FF0E0EE0FFF1FE057FF4FA6
:1001A000A591B491EC91ED2381E090E009F480E019
:1001B000DF91CF91089580E090E0FACF1F93CF9325
:1001C000DF93282F30E0F901E458FF4F8491F901C3
:1001D000E255FF4FD491F901E656FF4FC491CC236D
:1001E000A9F0162F81110E948C00EC2FF0E0EE0F89
:1001F000FF1FEE58FF4FA591B4918FB7F894EC9183
:10020000111108C0D095DE23DC938FBFDF91CF9111
:100210001F910895DE2BF8CFCF93DF9390E0FC0180
:10022000E255FF4F249186569F4FFC01849188230D
:10023000D1F090E0880F991FFC01E859FF4FA5917C
:10024000B491FC01EE58FF4FC591D49161110EC0DD
:100250009FB7F8948C91E22FE0958E238C932881A0
:10026000E223E8839FBFDF91CF9108958FB7F89481
:10027000EC91E22BEC938FBFF6CF3FB7F8948091CF
:10028000D3029091D402A091D502B091D60226B5A6
:10029000A89B05C02F3F19F00196A11DB11D3FBFBE
:1002A000BA2FA92F982F8827BC01CD01620F711D8D
:1002B000811D911D42E0660F771F881F991F4A9587
:1002C000D1F708958F929F92AF92BF92CF92DF9213
:1002D000EF92FF924B015C010E943D016B017C019A
:1002E0000E943D016C197D098E099F09683E73408B
:1002F00081059105A8F321E0821A9108A108B108AF
:1003000088EEC80E83E0D81EE11CF11C8114910414
:10031000A104B10429F7FF90EF90DF90CF90BF9038
:10032000AF909F908F9008952FB7F8946091CF026F
:100330007091D0028091D1029091D2022FBF089586
:1003400081E08093BC020895089508950895AF92C6
:10035000BF92CF92DF92EF92FF920F931F93CF93B2
:10036000DF936C017B018B01040F151FEB015E0114
:10037000AE18BF08C017D10759F06991D601ED91A9
:10038000FC910190F081E02DC6010995892B79F748
:10039000C501DF91CF911F910F91FF90EF90DF90FA
:1003A000CF90BF90AF900895089520911502260F29
:1003B0003327331F21323105ECF420915E02FC011A
:1003C00090E080E0243069F082E00895A091150269
:1003D0002191AC014B505E4FA40FB52FB11D2C9352
:1003E0000196861798F380911502680F60931502A5
:1003F00080E0089581E0089510925E0281E080938C
:100400005D021092380261E082E10E94DE0061E04C
:1004100083E10E94DE00E9EBF0E080818E7F808343
:1004200080818D7F808388E48093B80085E4809309
:10043000BC000895CF93DF9391E09093F40188235B
:10044000B9F0C091B800D091BA008091BC008A7B0D
:100450008093BC0060E082E10E94DE0060E083E106
:100460000E94DE000E94FC01D093BA00C093B80045
:10047000DF91CF9108950895E0918D0280918C02D3
:10048000E81730F4F0E0EC52FE4F808190E00895E0
:100490008FEF9FEF089590918D0280918C022FEF46
:1004A0003FEF981748F4E92FF0E0EC52FE4F20811F
:1004B00030E09F5F90938D02C901089580918C0276
:1004C00090918D02891B990B0895CF92DF92EF9244
:1004D000FF920F931F93CF93DF937C01CB018A018F
:1004E00020916402222389F0EB016B01C40ED51E1A
:1004F000CC15DD0569F06991D701ED91FC91019072
:10050000F081E02DC7010995F3CF642F0E94D5013A
:10051000C801DF91CF911F910F91FF90EF90DF9075
:10052000CF900895CF93DF931F92CDB7DEB7698345
:10053000209164022223F9F020918A02203258F09F
:1005400021E030E0FC013383228390E080E00F90D3
:10055000DF91CF91089580918B02E82FF0E0EB5965
:10056000FD4F998190838F5F80938B0280938A02E5
:1005700081E090E0ECCF61E0CE0101960E94D501D0
:10058000F7CFCF92DF92EF92FF920F931F93CF930B
:10059000DF93FC01C48121E020936402C0938502B3
:1005A00010928B0210928A028385682B87ED92E06D
:1005B0000E949202D0918A02D13208F092C00E9429
:1005C0003D016B017C0180915E02811165C082E07A
:1005D00080935E0281E080935D028FEF80935C02E6
:1005E00010925B02D0935A02A5E6B2E0EAE3F2E091
:1005F00080E0D81385C01092390280913902CC0F67
:10060000C82BC093390280913802813009F07CC038
:10061000109238020E943D016B017C0180913902E9
:100620008093BB008091600290916102A091620270
:10063000B0916302892B8A2B8B2B99F00E943D018C
:100640000091600210916102209162023091630278
:100650006C197D098E099F090617170728073907A6
:10066000E0F18091BC0083FDD9CF85EC8093BC0084
:100670000E943D016B017C0180915E02823009F491
:1006800045C080915C028F3F61F180915C028032B5
:1006900041F180915C0225C08091600290916102DD
:1006A000A0916202B0916302892B8A2B8B2B09F4F3
:1006B0008ACF0E943D010091600210916102209159
:1006C0006202309163026C197D098E099F09061739
:1006D00017072807390708F076CF80915F020E943C
:1006E0001A0210928B0210928A0210926402DF9119
:1006F000CF911F910F91FF90EF90DF90CF900895D1
:100700009D9191938F5F75CF85EEB0CF8091600200
:1007100090916102A0916202B0916302892B8A2BB1
:100720008B2B09F4A9CF0E943D010091600210912A
:10073000610220916202309163026C197D098E0979
:100740009F09061717072807390708F095CFC5CF67
:1007500090E080E0089582E00E94B500019759F48E
:100760000E943D016093C5027093C6028093C70248
:100770009093C802089582E00E94B500892B69F425
:100780000E943D016093C9027093CA028093CB021C
:100790009093CC0281E08093CD0208958F929F9236
:1007A000AF92BF920F931F93CF93DF93CDB7DEB776
:1007B000A1970FB6F894DEBF0FBECDBF19A242308D
:1007C00008F44AE08E010F5D1F4F842E912CB12C4E
:1007D000A12CA50194010E94020CE62FB901CA01C7
:1007E000EA3044F5E05DD801EE938D01232B242BF4
:1007F000252B79F790E080E0109769F0FD010190DA
:100800000020E9F73197AF014A1B5B0BBD0183EE76
:1008100092E00E94A701A1960FB6F894DEBF0FBE2A
:10082000CDBFDF91CF911F910F91BF90AF909F905F
:100830008F900895E95CD7CFFC0101900020E9F783
:100840003197AF01481B590BBC0183EE92E00C9429
:10085000A7010F931F938B019C01E1EBF0E06491E2
:10086000EDE9F0E0E491F0E0EE0FFF1FE057FF4FFD
:10087000A591B491462FCD010E940607611571051F
:100880008105910529F06F5F7F4F8F4F9F4F9F70BC
:100890001F910F9108950F931F93CF938C01C62F33
:1008A0000E94C1026C2F6460C8010E94C1026C2FBB
:1008B0006B7FC8010E94C10283EC90E00197F1F7C1
:1008C000CF911F910F9108950F931F93CF93DF93B3
:1008D0008C01D62FC42F607F642B0E944B0480E1D3
:1008E000D89FB00111246C2BC801DF91CF911F91CB
:1008F0000F910C944B0440E0682F83EE92E00C942F
:100900006404CF93DF93CDB7DEB728970FB6F89482
:10091000DEBF0FBECDBF98E0EBE0F1E0DE01119647
:1009200001900D929A95E1F79091EB02961708F4D9
:100930006FEF70E0660F771F21E030E02C0F3D1F56
:10094000620F731FFB019081890F806828960FB694
:10095000F894DEBF0FBECDBFDF91CF910C947B0426
:1009600081E00E947B048BE39FE10197F1F70895FA
:10097000CF93DF93823028F09091E80298609093B3
:10098000E8028093EB0262E370E080E090E00E9476
:1009900062016091EE0283EE92E00E94C10268EE75
:1009A00073E080E090E00E94620160E383EE92E0F9
:1009B0000E944B04CBE4D6E4CE010197F1F760E34B
:1009C00083EE92E00E944B042197F1F760E383EEFF
:1009D00092E00E944B0483E592E00197F1F760E218
:1009E00083EE92E00E944B048091E80280620E94B4
:1009F0007B0484E08093E9028CE00E947B040E94E7
:100A0000B00482E08093EA0286E00E947B0482E0E8
:100A10000E947B048BE39FE10197F1F7DF91CF9177
:100A2000089541E00E94640481E090E0089585ED1E
:100A30008093BC008091600290916102A09162025B
:100A4000B09163020796A11DB11D23E0B695A7954D
:100A5000979587952A95D1F72091BC0024FD03C076
:100A600010925E020895409160025091610260917F
:100A7000620270916302452B462B472B69F3009766
:100A8000A105B10541F02AE22A95F1F700C00197CE
:100A9000A109B109E1CF80915F020C941A021F9263
:100AA0000F920FB60F9211242F933F938F939F9322
:100AB000AF93BF938091CF029091D002A091D102C9
:100AC000B091D2023091CE0223E0230F2D3758F59A
:100AD0000196A11DB11D2093CE028093CF02909369
:100AE000D002A093D102B093D2028091D302909110
:100AF000D402A091D502B091D6020196A11DB11DDC
:100B00008093D3029093D402A093D502B093D602DF
:100B1000BF91AF919F918F913F912F910F900FBEF9
:100B20000F901F90189526E8230F0296A11DB11D66
:100B3000D2CF1F920F920FB60F9211242F933F9393
:100B40004F935F936F937F938F939F93AF93BF93D5
:100B5000EF93FF93E0910201F09103010995FF915A
:100B6000EF91BF91AF919F918F917F916F915F9125
:100B70004F913F912F910F900FBE0F901F9018959E
:100B80001F920F920FB60F9211242F933F934F9302
:100B90005F936F937F938F939F93AF93BF93EF93E5
:100BA000FF93E0910001F09101010995FF91EF9110
:100BB000BF91AF919F918F917F916F915F914F9175
:100BC0003F912F910F900FBE0F901F9018951F927D
:100BD0000F920FB60F9211242F933F934F935F9371
:100BE0006F937F938F939F93AF93BF93EF93FF93F5
:100BF0008091B900887F803609F44AC0F0F58832C8
:100C000009F4A7C018F5803109F49BC0B8F4882313
:100C100009F4F9C0883009F494C0FF91EF91BF91B5
:100C2000AF919F918F917F916F915F914F913F9184
:100C30002F910F900FBE0F901F901895883109F4D7
:100C400088C0803251F780935C0214C0803409F46C
:100C50009DC040F48033B9F38833F9F680935C0289
:100C600085ECB0C0803509F485C0883509F496C09C
:100C7000883499F60E941705D0CF883909F48CC0C2
:100C800038F5883729F050F4883611F0803729F686
:100C900083E080935E021092370257C0883809F4CF
:100CA0007BC0803919F0803809F0B7CF80913702C6
:100CB000803208F071C0E091370281E08E0F80939E
:100CC00037028091BB00F0E0E95EFD4F80833DC0BC
:100CD000803B39F0E0F4803A09F479C0883A09F0B1
:100CE0009CCF84E080935E0210921602109215024F
:100CF000E0918802F0918902099580911502811195
:100D00000FC081E0809315021092F50109C0803C6C
:100D100009F4A6CF883C09F4A3CF883B09F07DCF26
:100D2000E091160281E08E0F80931602F0E0EB5006
:100D3000FE4F80818093BB00909116028091150236
:100D400029C0809139028093BB0085EC8093BC0060
:100D500064CF90915B0280915A02981758F5E09108
:100D60005B0281E08E0F80935B02F0E0E65CFD4F5A
:100D70008081E9CFE0915B0281E08E0F80935B027E
:100D80008091BB00F0E0E65CFD4F808390915B02B8
:100D900080915A029817C8F285E8D8CFE0915B029B
:100DA00081E08E0F80935B028091BB00F0E0E65CF7
:100DB000FD4F808380915D0281115CCF81E0809343
:100DC000380284EA8093BC0010925E0226CF85EC44
:100DD0008093BC0010925E0280913702803230F422
:100DE000E0913702F0E0E95EFD4F1082609137023A
:100DF00070E0E0918602F091870287E192E0099528
:100E0000109237020ACF10925C0234CFCF92DF9259
:100E1000EF92FF920F931F93E82FF92F05C0015017
:100E200011092109310961F1908196239417B9F3D1
:100E300005C0015011092109310911F19081962352
:100E40009413F7CFC12CD12CE12CF12C0AC08FEFD9
:100E5000C81AD80AE80AF80A0C151D052E053F0520
:100E600079F080818623841791F36C2D7D2D8E2D52
:100E70009F2D1F910F91FF90EF90DF90CF900895DD
:100E800060E070E080E090E01F910F91FF90EF90A4
:100E9000DF90CF900895E7EDF2E01382128288EEA2
:100EA00093E0A0E0B0E084839583A683B78387E1D5
:100EB00091E091838083E3EEF2E01382128289E273
:100EC00091E09183808387E2848380E1818782E05F
:100ED000828713860895789484B5826084BD84B532
:100EE000816084BD85B5826085BD85B5816085BD25
:100EF00080916E00816080936E00109281008091DD
:100F00008100826080938100809181008160809364
:100F10008100809180008160809380008091B10089
:100F200084608093B1008091B00081608093B000B4
:100F300080917A00846080937A0080917A00826048
:100F400080937A0080917A00816080937A0080910A
:100F50007A00806880937A001092C10061E08DE091
:100F60000E940C0160E083E00E940C0160E082E0DE
:100F70000E940C0160E08DE00E94DE0010928D0264
:100F800010928C0210928B0210928A020E94FC0135
:100F900084EA91E0909389028093880285EA91E047
:100FA00090938702809386021092E8028091ED026E
:100FB0000E94B80482E00E94B8040E94B00488E055
:100FC0008093EE0260E083EE92E00E94C10260E056
:100FD00080E00E94810481E391E00E941C0461E0B2
:100FE00080E00E94810482E491E00E941C0468EB8E
:100FF0007BE080E090E00E9462010E94B00460E02B
:1010000080E00E94810483E591E00E941C0461E07D
:1010100084E00E94810484E091E00E941C0468EB5B
:101020007BE080E090E00E94620160E080E00E944E
:10103000810484E691E00E941C0461E080E00E944B
:10104000810485E791E00E941C048091E902982FB9
:1010500091609093E90289600E947B0460EC7FECD0
:101060008AE690E00E94290485E090E0672B11F069
:101070008BE090E09093BE028093BD028091E902E4
:101080008E7F8093E90288600E947B040E94B004F6
:101090008091BD029091BE028B30910509F06BC228
:1010A00060E080E00E94810482E491E00E941C04E0
:1010B00061E080E00E94810485E891E00E941C04C8
:1010C00068EB7BE080E090E00E9462010E94B00447
:1010D00060E080E00E94810485E991E00E941C04A8
:1010E00061E080E00E94810484EA91E00E941C0497
:1010F00061E08091BD020E9481048FEA91E00E942C
:101100001C0468EE73E080E090E00E94620181E0E0
:101110008CBB82E08CBB8BEA93E0909301018093BF
:101120000001809169008C7F816080936900E89A5A
:1011300080EA91E09093030180930201809169001D
:101140008C6080936900E99ACFECD1E00EE812E060
:1011500080E0282E80E0382E8091CD02882309F48B
:1011600066C0F8948091C9029091CA02A091CB0206
:10117000B091CC024091C5025091C6026091C70265
:101180007091C802841B950BA60BB70B8093C1020C
:101190009093C202A093C302B093C402789460916A
:1011A000C1027091C2028091C3029091C402603466
:1011B00022E472072FE08207910520F06FE372E4CA
:1011C0008FE090E06093C1027093C2028093C302EB
:1011D0009093C40228EE33E040E050E00E94020CFD
:1011E0003093C0022093BF0261E08091BD020E9453
:1011F000810483EC91E00E941C0461E08091BD02B7
:101200000E9481046091BF027091C00216161706F9
:101210000CF0BBC1072E000C880B990B4AE00E9412
:10122000CE0389EC91E00E941C041092CD028091C3
:10123000BD029091BE02059709F496C18091BC024F
:10124000882309F491C10E9494016093B8027093BD
:10125000B9028093BA029093BB0283E00E94B5006A
:101260000197D9F30E9494016093B4027093B50280
:101270008093B6029093B7020E9494016093B002EB
:101280007093B1028093B2029093B30260E87AE166
:1012900086E090E00E9429046093AC027093AD0256
:1012A0008093AE029093AF020E9494016093A802D3
:1012B0007093A9028093AA029093AB020E949401BA
:1012C0006093A4027093A5028093A6029093A70254
:1012D00060E87AE186E090E00E9429044B015C011D
:1012E0008092A0029092A102A092A202B092A302C8
:1012F0000E9494016B017C014090B4025090B502B1
:101300006090B6027090B7028091B8029091B902D5
:10131000A091BA02B091BB02481A590A6A0A7B0A24
:101320006091AC027091AD028091AE029091AF02DB
:10133000611571058105910591F00E94740B20E003
:1013400030E04AE754E40E94D30A0E94450B6093C0
:10135000AC027093AD028093AE029093AF02811401
:101360009104A104B104A1F0C501B4010E94740B61
:1013700020E030E04AE754E40E94D30A0E94450B83
:101380006093A0027093A1028093A2029093A302A3
:101390004091AC025091AD026091AE027091AF02EB
:1013A0008091A8029091A902A091AA02B091AB02EB
:1013B0008090B0029090B102A090B202B090B302BF
:1013C00088199909AA09BB09841B950BA60BB70BB1
:1013D00080939C0290939D02A0939E02B0939F02E3
:1013E0008091A0029091A102A091A202B091A302CB
:1013F0008090A4029090A502A090A602B090A702AF
:10140000C818D908EA08FB08C81AD90AEA0AFB0A68
:10141000C0929802D0929902E0929A02F0929B02B6
:10142000452B462B472B41F410929C0210929D02B3
:1014300010929E0210929F02892B8A2B8B2B41F4D3
:10144000109298021092990210929A0210929B02A6
:101450007F926F925F924F92DF93CF931F930F9380
:101460000E942A0C60E083E00E9481048EE892E0F2
:101470000E941C0480919F028F9380919E028F9303
:1014800080919D028F9380919C028F93DF93CF93E5
:101490001F930F930E942A0C61E083E00E94810455
:1014A0008EE892E00E941C048091AF028F9380919D
:1014B000AE028F938091AD028F938091AC028F9397
:1014C000DF93CF931F930F930E942A0C60E087E075
:1014D0000E9481048EE892E00E941C0480919B028D
:1014E0008F9380919A028F93809199028F9380912C
:1014F00098028F93DF93CF931F930F930E942A0C30
:101500008DB79EB780960FB6F8949EBF0FBE8DBF65
:1015100061E087E00E9481048EE892E00E941C0452
:101520008091A3028F938091A2028F938091A10258
:101530008F938091A0028F93DF93CF931F930F938C
:101540000E942A0C60E08BE00E9481048EE892E009
:101550000E941C041092BC028DB79EB708960FB66D
:10156000F8949EBF0FBE8DBF2114310409F4F4CD51
:101570000E940000F1CD059709F0C3CD60E080E046
:101580000E94810484EB91E0B1CD6091C102709121
:10159000C2028091C3029091C4024AE00E94CE032D
:1015A0008CEC91E040CE0E94E70A0C94C80B0E949C
:1015B000C10B58F00E94BA0B40F029F45F3F29F0AC
:1015C0000C94B10B51110C94FC0B0C94B70B0E94B2
:1015D000D90B68F39923B1F3552391F3951B550B60
:1015E000BB27AA2762177307840738F09F5F5F4FF6
:1015F000220F331F441FAA1FA9F335D00E2E3AF035
:10160000E0E832D091505040E695001CCAF72BD04C
:10161000FE2F29D0660F771F881FBB1F261737079D
:101620004807AB07B0E809F0BB0B802DBF01FF27CF
:1016300093585F4F3AF09E3F510578F00C94B10BF0
:101640000C94FC0B5F3FE4F3983ED4F386957795BA
:101650006795B795F7959F5FC9F7880F911D969588
:10166000879597F90895E1E0660F771F881FBB1FE4
:10167000621773078407BA0720F0621B730B840B91
:10168000BA0BEE1F88F7E09508950E94E10B88F0F1
:101690009F5798F0B92F9927B751B0F0E1F0660F36
:1016A000771F881F991F1AF0BA95C9F714C0B13077
:1016B00091F00E94FB0BB1E008950C94FB0B672F97
:1016C000782F8827B85F39F0B93FCCF386957795A6
:1016D0006795B395D9F73EF490958095709561958F
:1016E0007F4F8F4F9F4F0895E89409C097FB3EF4BA
:1016F00090958095709561957F4F8F4F9F4F99235F
:10170000A9F0F92F96E9BB279395F69587957795DC
:101710006795B795F111F8CFFAF4BB0F11F460FF9C
:101720001BC06F5F7F4F8F4F9F4F16C0882311F0F4
:1017300096E911C0772321F09EE8872F762F05C008
:10174000662371F096E8862F70E060E02AF09A95A3
:10175000660F771F881FDAF7880F9695879597F998
:10176000089597F99F6780E870E060E008959FEF23
:1017700080EC089500240A94161617061806090628
:10178000089500240A9412161306140605060895F7
:10179000092E0394000C11F4882352F0BB0F40F47F
:1017A000BF2B11F460FF04C06F5F7F4F8F4F9F4FBF
:1017B000089557FD9058440F551F59F05F3F71F041
:1017C0004795880F97FB991F61F09F3F79F08795A8
:1017D0000895121613061406551FF2CF4695F1DF31
:1017E00008C0161617061806991FF1CF86957105C1
:1017F000610508940895E894BB2766277727CB01F5
:1018000097F90895A1E21A2EAA1BBB1BFD010DC07A
:10181000AA1FBB1FEE1FFF1FA217B307E407F507A0
:1018200020F0A21BB30BE40BF50B661F771F881F7C
:10183000991F1A9469F760957095809590959B0112
:10184000AC01BD01CF010895EE0FFF1F0590F4918B
:10185000E02D0994AEE0B0E0E0E3FCE00C94D90E9A
:101860000D891E8986E08C831A8309838FEF9FE799
:101870009E838D83AE01475E5F4F6F89788DCE0169
:1018800001960E944D0C2F813885020F131FF8011D
:1018900010822E96E4E00C94F50EABE0B0E0E3E5A8
:1018A000FCE00C94CB0E7C013B018A01FC01178209
:1018B0001682838181FFC8C1CE0101965C01F701C8
:1018C0009381F30193FD859193FF81913F018823DB
:1018D00009F453C1853239F493FD859193FF8191C9
:1018E0003F01853229F4B70190E00E943D0EE7CF19
:1018F000912C212C312CFFE1F31538F08B3211F1B2
:1019000090F4803209F1833229F137FC3CC020ED9C
:10191000280F2A3050F536FE20C08AE0989E200D10
:101920001124922E06C08D3291F0803371F76894A5
:1019300030F8F30193FD859193FF81913F0181116F
:10194000DACF21C0689431F8689432F8F2CF689405
:1019500033F8EFCF689434F8ECCFEAE02E9E200DF8
:101960001124222E689435F8E4CF8E3229F436FC07
:1019700004C1689436F8DDCF8C3619F4689437F8D2
:10198000D8CF8836B1F2982F9F7D95549330E0F0F0
:101990008336A1F18337C1F1833509F063C0280193
:1019A000F2E04F0E511CF801C080D180692D70E02B
:1019B00036FC02C06FEF7FEFC6010E94270E4C017C
:1019C000689437F882010AC00C5F1F4FFFE3F98368
:1019D00088248394912C6501E89437F833FE2DC058
:1019E000522C8114910471F5552009F468CFB70188
:1019F00080E290E00E943D0E5A94F6CFF80180817B
:101A000089830E5F1F4FE4CF2801F2E04F0E511C77
:101A1000F801C080D180692D70E036FC02C06FEF04
:101A20007FEFC6010E94320E4C018201D5CFB70173
:101A300080E290E00E943D0E2A942814190409F0D7
:101A4000B0F7CECFF60137FC859137FE81916F015B
:101A5000B70190E00E943D0E51105A94F1E08F1AA8
:101A60009108BFCF843619F0893609F077C0F801A4
:101A700037FE6BC060817181828193810C5F1F4F43
:101A8000F32DFF763F2E97FF09C0909580957095B6
:101A900061957F4F8F4F9F4F689437F82AE030E071
:101AA000A5010E946D0EC82ECA188C2C432C36FE40
:101AB0000CC0E89440F8C91440F434FE05C032FC70
:101AC00003C0F32DFE7E4F2E892C44FE95C0FE01EF
:101AD000EC0DF11D8081803309F087C0242D297E13
:101AE000422E842D8870582E43FC95C040FE8FC036
:101AF0009C2C821418F42C0C922C981844FE91C043
:101B0000B70180E390E00E943D0E42FE09C088E7E5
:101B100090E041FE02C088E590E0B7010E943D0ED2
:101B2000C91408F48AC0CA94D12C9FEFC91AD90AE3
:101B3000CA0CDB1CF60182916F01B70190E00E9494
:101B40003D0EAC14BD04B1F74FCF60817181072EFB
:101B5000000C880B990B0E5F1F4F92CFD32CE8948B
:101B6000D4F82AE030E0853739F1232D297FD22EB1
:101B70008F3601F148F48835A9F0F7018681978105
:101B80002B96E2E10C94E70E803749F08837A9F7ED
:101B9000D4FE02C06894D2F820E130E00DC0689411
:101BA000D4F8F6CF34FE03C0822F8660D82E20E111
:101BB00032E002C028E030E0F801D7FE0FC06081BB
:101BC0007181828193810C5F1F4FA5010E946D0E70
:101BD000C82ECA183D2CE89437F867CF6081718110
:101BE00090E080E00E5F1F4FF0CF42FC02C0839474
:101BF00078CF8394839475CF842D867809F471CF40
:101C0000F6CFB70180E290E00E943D0E83948214EB
:101C1000C0F3512C73CF522C5818821408F46ECF95
:101C2000F8CF842D867809F47BCF8BE241FE80E2E9
:101C300047FC8DE2B70190E071CFB70180E390E0FF
:101C40000E943D0E9A946CCF8FEF9FEF99CFFC01CD
:101C50000590615070400110D8F7809590958E0FD7
:101C60009F1F0895FC016150704001900110D8F74A
:101C7000809590958E0F9F1F08950F931F93CF937C
:101C8000DF93182F092FEB018B8181FD09C01FEF16
:101C90000FEF812F902FDF91CF911F910F9108951A
:101CA00082FF14C02E813F818C819D8128173907C6
:101CB0003CF4E881F981CF010196998388831083F0
:101CC0008E819F8101969F838E83E3CFE885F9857E
:101CD000812F0995892BA1F3DACFFA01AA272830A1
:101CE00051F1203181F1E8946F936E7F6E5F7F4FE9
:101CF0008F4F9F4FAF4FB1E03ED0B4E03CD0670F65
:101D0000781F891F9A1FA11D680F791F8A1F911DB7
:101D1000A11D6A0F711D811D911DA11D20D009F407
:101D200068943F912AE0269F11243019305D319349
:101D3000DEF6CF010895462F4770405D4193B3E032
:101D40000FD0C9F7F6CF462F4F70405D4A3318F0D9
:101D5000495D31FD4052419302D0A9F7EACFB4E08A
:101D6000A6959795879577956795BA95C9F7009742
:101D70006105710508959B01AC010A2E06945795E3
:101D8000479537952795BA95C9F7620F731F841F3A
:101D9000951FA01D08952F923F924F925F926F92D0
:101DA0007F928F929F92AF92BF92CF92DF92EF92EB
:101DB000FF920F931F93CF93DF93CDB7DEB7CA1B6C
:101DC000DB0B0FB6F894DEBF0FBECDBF09942A8897
:101DD000398848885F846E847D848C849B84AA843F
:101DE000B984C884DF80EE80FD800C811B81AA81CC
:101DF000B981CE0FD11D0FB6F894DEBF0FBECDBF97
:081E0000ED010895F894FFCFF5
:101E0800A601A601566572312E3900000040001463
:101E18000054000000000092026502A8033B025E25
:101E2800024B023C02000000001105A701A803D4E0
:101E3800015472696767657254696D65723320264B
:101E480020002020417374726F53706C6173682096
:101E58002020004469676974616C20446973706C60
:101E68006179200020205472696767657220746860
:101E78006520202000417374726F53706C61736821
:101E8800204E6F7700202020446574656374656474
:101E980020202020005370202D2D2D202D2D2D2089
:101EA8002D2D2D004465202D2D2D202D2D2D002D7F
:101EB8002D2D2D00204D756C746954726967676506
:101EC8007233002020202020006D53007553002518
:041ED800303364003F
:00000001FF
